{
  "_format": "hh-sol-artifact-1",
  "contractName": "EZLottery",
  "sourceName": "contracts/EZLottery.sol",
  "abi": [
    {
      "inputs": [],
      "stateMutability": "nonpayable",
      "type": "constructor"
    },
    {
      "anonymous": false,
      "inputs": [
        {
          "indexed": true,
          "internalType": "address",
          "name": "owner",
          "type": "address"
        },
        {
          "indexed": true,
          "internalType": "address",
          "name": "approved",
          "type": "address"
        },
        {
          "indexed": true,
          "internalType": "uint256",
          "name": "tokenId",
          "type": "uint256"
        }
      ],
      "name": "Approval",
      "type": "event"
    },
    {
      "anonymous": false,
      "inputs": [
        {
          "indexed": true,
          "internalType": "address",
          "name": "owner",
          "type": "address"
        },
        {
          "indexed": true,
          "internalType": "address",
          "name": "operator",
          "type": "address"
        },
        {
          "indexed": false,
          "internalType": "bool",
          "name": "approved",
          "type": "bool"
        }
      ],
      "name": "ApprovalForAll",
      "type": "event"
    },
    {
      "anonymous": false,
      "inputs": [
        {
          "indexed": true,
          "internalType": "address",
          "name": "from",
          "type": "address"
        },
        {
          "indexed": true,
          "internalType": "address",
          "name": "to",
          "type": "address"
        },
        {
          "indexed": true,
          "internalType": "uint256",
          "name": "tokenId",
          "type": "uint256"
        }
      ],
      "name": "Transfer",
      "type": "event"
    },
    {
      "inputs": [],
      "name": "CREATOR",
      "outputs": [
        {
          "internalType": "address payable",
          "name": "",
          "type": "address"
        }
      ],
      "stateMutability": "view",
      "type": "function"
    },
    {
      "inputs": [],
      "name": "MAX_MINTABLE",
      "outputs": [
        {
          "internalType": "uint256",
          "name": "",
          "type": "uint256"
        }
      ],
      "stateMutability": "view",
      "type": "function"
    },
    {
      "inputs": [],
      "name": "TICKET_PRICE",
      "outputs": [
        {
          "internalType": "uint256",
          "name": "",
          "type": "uint256"
        }
      ],
      "stateMutability": "view",
      "type": "function"
    },
    {
      "inputs": [
        {
          "internalType": "address",
          "name": "to",
          "type": "address"
        },
        {
          "internalType": "uint256",
          "name": "tokenId",
          "type": "uint256"
        }
      ],
      "name": "approve",
      "outputs": [],
      "stateMutability": "nonpayable",
      "type": "function"
    },
    {
      "inputs": [
        {
          "internalType": "address",
          "name": "owner",
          "type": "address"
        }
      ],
      "name": "balanceOf",
      "outputs": [
        {
          "internalType": "uint256",
          "name": "",
          "type": "uint256"
        }
      ],
      "stateMutability": "view",
      "type": "function"
    },
    {
      "inputs": [
        {
          "internalType": "uint256",
          "name": "tokenId",
          "type": "uint256"
        }
      ],
      "name": "getApproved",
      "outputs": [
        {
          "internalType": "address",
          "name": "",
          "type": "address"
        }
      ],
      "stateMutability": "view",
      "type": "function"
    },
    {
      "inputs": [
        {
          "internalType": "address",
          "name": "owner",
          "type": "address"
        },
        {
          "internalType": "address",
          "name": "operator",
          "type": "address"
        }
      ],
      "name": "isApprovedForAll",
      "outputs": [
        {
          "internalType": "bool",
          "name": "",
          "type": "bool"
        }
      ],
      "stateMutability": "view",
      "type": "function"
    },
    {
      "inputs": [],
      "name": "mintTicket",
      "outputs": [],
      "stateMutability": "payable",
      "type": "function"
    },
    {
      "inputs": [],
      "name": "name",
      "outputs": [
        {
          "internalType": "string",
          "name": "",
          "type": "string"
        }
      ],
      "stateMutability": "view",
      "type": "function"
    },
    {
      "inputs": [
        {
          "internalType": "uint256",
          "name": "tokenId",
          "type": "uint256"
        }
      ],
      "name": "ownerOf",
      "outputs": [
        {
          "internalType": "address",
          "name": "",
          "type": "address"
        }
      ],
      "stateMutability": "view",
      "type": "function"
    },
    {
      "inputs": [
        {
          "internalType": "address",
          "name": "from",
          "type": "address"
        },
        {
          "internalType": "address",
          "name": "to",
          "type": "address"
        },
        {
          "internalType": "uint256",
          "name": "tokenId",
          "type": "uint256"
        }
      ],
      "name": "safeTransferFrom",
      "outputs": [],
      "stateMutability": "nonpayable",
      "type": "function"
    },
    {
      "inputs": [
        {
          "internalType": "address",
          "name": "from",
          "type": "address"
        },
        {
          "internalType": "address",
          "name": "to",
          "type": "address"
        },
        {
          "internalType": "uint256",
          "name": "tokenId",
          "type": "uint256"
        },
        {
          "internalType": "bytes",
          "name": "data",
          "type": "bytes"
        }
      ],
      "name": "safeTransferFrom",
      "outputs": [],
      "stateMutability": "nonpayable",
      "type": "function"
    },
    {
      "inputs": [],
      "name": "selectWinner",
      "outputs": [],
      "stateMutability": "nonpayable",
      "type": "function"
    },
    {
      "inputs": [
        {
          "internalType": "address",
          "name": "operator",
          "type": "address"
        },
        {
          "internalType": "bool",
          "name": "approved",
          "type": "bool"
        }
      ],
      "name": "setApprovalForAll",
      "outputs": [],
      "stateMutability": "nonpayable",
      "type": "function"
    },
    {
      "inputs": [
        {
          "internalType": "bytes4",
          "name": "interfaceId",
          "type": "bytes4"
        }
      ],
      "name": "supportsInterface",
      "outputs": [
        {
          "internalType": "bool",
          "name": "",
          "type": "bool"
        }
      ],
      "stateMutability": "view",
      "type": "function"
    },
    {
      "inputs": [],
      "name": "symbol",
      "outputs": [
        {
          "internalType": "string",
          "name": "",
          "type": "string"
        }
      ],
      "stateMutability": "view",
      "type": "function"
    },
    {
      "inputs": [
        {
          "internalType": "uint256",
          "name": "tokenId",
          "type": "uint256"
        }
      ],
      "name": "tokenURI",
      "outputs": [
        {
          "internalType": "string",
          "name": "",
          "type": "string"
        }
      ],
      "stateMutability": "view",
      "type": "function"
    },
    {
      "inputs": [
        {
          "internalType": "address",
          "name": "from",
          "type": "address"
        },
        {
          "internalType": "address",
          "name": "to",
          "type": "address"
        },
        {
          "internalType": "uint256",
          "name": "tokenId",
          "type": "uint256"
        }
      ],
      "name": "transferFrom",
      "outputs": [],
      "stateMutability": "nonpayable",
      "type": "function"
    },
    {
      "inputs": [],
      "name": "winnerAddress",
      "outputs": [
        {
          "internalType": "address payable",
          "name": "",
          "type": "address"
        }
      ],
      "stateMutability": "view",
      "type": "function"
    }
  ],
  "bytecode": "0x60806040523480156200001157600080fd5b506040518060400160405280600981526020017f455a4c6f747465727900000000000000000000000000000000000000000000008152506040518060400160405280600581526020017f455a4c4f54000000000000000000000000000000000000000000000000000000815250816000908051906020019062000096929190620000d0565b508060019080519060200190620000af929190620000d0565b505050600160068190555060006007819055506000600881905550620001e5565b828054620000de9062000180565b90600052602060002090601f0160209004810192826200010257600085556200014e565b82601f106200011d57805160ff19168380011785556200014e565b828001600101855582156200014e579182015b828111156200014d57825182559160200191906001019062000130565b5b5090506200015d919062000161565b5090565b5b808211156200017c57600081600090555060010162000162565b5090565b600060028204905060018216806200019957607f821691505b60208210811415620001b057620001af620001b6565b5b50919050565b7f4e487b7100000000000000000000000000000000000000000000000000000000600052602260045260246000fd5b61300480620001f56000396000f3fe6080604052600436106101145760003560e01c8063573c80fa116100a0578063b88d4fde11610064578063b88d4fde1461037e578063c87b56dd146103a7578063e4fbb609146103e4578063e985e9c51461040f578063ed7a4e0b1461044c57610114565b8063573c80fa146102a65780636352211e146102b057806370a08231146102ed57806395d89b411461032a578063a22cb4651461035557610114565b80631a95f15f116100e75780631a95f15f146101e757806323b872dd1461021257806333a99e041461023b5780633f879faf1461025257806342842e0e1461027d57610114565b806301ffc9a71461011957806306fdde0314610156578063081812fc14610181578063095ea7b3146101be575b600080fd5b34801561012557600080fd5b50610140600480360381019061013b919061203f565b610477565b60405161014d919061250d565b60405180910390f35b34801561016257600080fd5b5061016b610559565b6040516101789190612528565b60405180910390f35b34801561018d57600080fd5b506101a860048036038101906101a39190612091565b6105eb565b6040516101b5919061248b565b60405180910390f35b3480156101ca57600080fd5b506101e560048036038101906101e09190612003565b610631565b005b3480156101f357600080fd5b506101fc610749565b604051610209919061276a565b60405180910390f35b34801561021e57600080fd5b5061023960048036038101906102349190611efd565b610754565b005b34801561024757600080fd5b506102506107b4565b005b34801561025e57600080fd5b506102676108c2565b604051610274919061276a565b60405180910390f35b34801561028957600080fd5b506102a4600480360381019061029f9190611efd565b6108c7565b005b6102ae6108e7565b005b3480156102bc57600080fd5b506102d760048036038101906102d29190612091565b610a21565b6040516102e4919061248b565b60405180910390f35b3480156102f957600080fd5b50610314600480360381019061030f9190611e98565b610aa8565b604051610321919061276a565b60405180910390f35b34801561033657600080fd5b5061033f610b60565b60405161034c9190612528565b60405180910390f35b34801561036157600080fd5b5061037c60048036038101906103779190611fc7565b610bf2565b005b34801561038a57600080fd5b506103a560048036038101906103a09190611f4c565b610c08565b005b3480156103b357600080fd5b506103ce60048036038101906103c99190612091565b610c6a565b6040516103db9190612528565b60405180910390f35b3480156103f057600080fd5b506103f9610cd2565b60405161040691906124a6565b60405180910390f35b34801561041b57600080fd5b5061043660048036038101906104319190611ec1565b610cea565b604051610443919061250d565b60405180910390f35b34801561045857600080fd5b50610461610d7e565b60405161046e91906124a6565b60405180910390f35b60007f80ac58cd000000000000000000000000000000000000000000000000000000007bffffffffffffffffffffffffffffffffffffffffffffffffffffffff1916827bffffffffffffffffffffffffffffffffffffffffffffffffffffffff1916148061054257507f5b5e139f000000000000000000000000000000000000000000000000000000007bffffffffffffffffffffffffffffffffffffffffffffffffffffffff1916827bffffffffffffffffffffffffffffffffffffffffffffffffffffffff1916145b80610552575061055182610da4565b5b9050919050565b606060008054610568906129d2565b80601f0160208091040260200160405190810160405280929190818152602001828054610594906129d2565b80156105e15780601f106105b6576101008083540402835291602001916105e1565b820191906000526020600020905b8154815290600101906020018083116105c457829003601f168201915b5050505050905090565b60006105f682610e0e565b6004600083815260200190815260200160002060009054906101000a900473ffffffffffffffffffffffffffffffffffffffff169050919050565b600061063c82610a21565b90508073ffffffffffffffffffffffffffffffffffffffff168373ffffffffffffffffffffffffffffffffffffffff1614156106ad576040517f08c379a00000000000000000000000000000000000000000000000000000000081526004016106a49061270a565b60405180910390fd5b8073ffffffffffffffffffffffffffffffffffffffff166106cc610e59565b73ffffffffffffffffffffffffffffffffffffffff1614806106fb57506106fa816106f5610e59565b610cea565b5b61073a576040517f08c379a00000000000000000000000000000000000000000000000000000000081526004016107319061272a565b60405180910390fd5b6107448383610e61565b505050565b662386f26fc1000081565b61076561075f610e59565b82610f1a565b6107a4576040517f08c379a000000000000000000000000000000000000000000000000000000000815260040161079b9061254a565b60405180910390fd5b6107af838383610faf565b505050565b6107bc6112a9565b600360075414610801576040517f08c379a00000000000000000000000000000000000000000000000000000000081526004016107f89061256a565b60405180910390fd5b6000600361080d6112f9565b6108179190612a88565b905061082281610a21565b600960006101000a81548173ffffffffffffffffffffffffffffffffffffffff021916908373ffffffffffffffffffffffffffffffffffffffff1602179055506108af600854600960009054906101000a900473ffffffffffffffffffffffffffffffffffffffff1673ffffffffffffffffffffffffffffffffffffffff1661132c90919063ffffffff16565b6000600881905550506108c0611420565b565b600381565b6108e283838360405180602001604052806000815250610c08565b505050565b6108ef6112a9565b662386f26fc100003414610938576040517f08c379a000000000000000000000000000000000000000000000000000000000815260040161092f906126ea565b60405180910390fd5b60036007541061097d576040517f08c379a0000000000000000000000000000000000000000000000000000000008152600401610974906126aa565b60405180910390fd5b6109c6600a3461098d919061287f565b7343fe64a30544ed778b2f035f1ea47b9a047db36173ffffffffffffffffffffffffffffffffffffffff1661132c90919063ffffffff16565b600a6009346109d591906128b0565b6109df919061287f565b600860008282546109f09190612829565b92505081905550610a173360076000815480929190610a0e90612a35565b9190505561142a565b610a1f611420565b565b600080610a2d83611648565b9050600073ffffffffffffffffffffffffffffffffffffffff168173ffffffffffffffffffffffffffffffffffffffff161415610a9f576040517f08c379a0000000000000000000000000000000000000000000000000000000008152600401610a96906126ca565b60405180910390fd5b80915050919050565b60008073ffffffffffffffffffffffffffffffffffffffff168273ffffffffffffffffffffffffffffffffffffffff161415610b19576040517f08c379a0000000000000000000000000000000000000000000000000000000008152600401610b109061266a565b60405180910390fd5b600360008373ffffffffffffffffffffffffffffffffffffffff1673ffffffffffffffffffffffffffffffffffffffff168152602001908152602001600020549050919050565b606060018054610b6f906129d2565b80601f0160208091040260200160405190810160405280929190818152602001828054610b9b906129d2565b8015610be85780601f10610bbd57610100808354040283529160200191610be8565b820191906000526020600020905b815481529060010190602001808311610bcb57829003601f168201915b5050505050905090565b610c04610bfd610e59565b8383611685565b5050565b610c19610c13610e59565b83610f1a565b610c58576040517f08c379a0000000000000000000000000000000000000000000000000000000008152600401610c4f9061254a565b60405180910390fd5b610c64848484846117f2565b50505050565b6060610c7582610e0e565b6000610c7f61184e565b90506000815111610c9f5760405180602001604052806000815250610cca565b80610ca984611865565b604051602001610cba929190612426565b6040516020818303038152906040525b915050919050565b7343fe64a30544ed778b2f035f1ea47b9a047db36181565b6000600560008473ffffffffffffffffffffffffffffffffffffffff1673ffffffffffffffffffffffffffffffffffffffff16815260200190815260200160002060008373ffffffffffffffffffffffffffffffffffffffff1673ffffffffffffffffffffffffffffffffffffffff16815260200190815260200160002060009054906101000a900460ff16905092915050565b600960009054906101000a900473ffffffffffffffffffffffffffffffffffffffff1681565b60007f01ffc9a7000000000000000000000000000000000000000000000000000000007bffffffffffffffffffffffffffffffffffffffffffffffffffffffff1916827bffffffffffffffffffffffffffffffffffffffffffffffffffffffff1916149050919050565b610e1781611989565b610e56576040517f08c379a0000000000000000000000000000000000000000000000000000000008152600401610e4d906126ca565b60405180910390fd5b50565b600033905090565b816004600083815260200190815260200160002060006101000a81548173ffffffffffffffffffffffffffffffffffffffff021916908373ffffffffffffffffffffffffffffffffffffffff160217905550808273ffffffffffffffffffffffffffffffffffffffff16610ed483610a21565b73ffffffffffffffffffffffffffffffffffffffff167f8c5be1e5ebec7d5bd14f71427d1e84f3dd0314c0f7b2291e5b200ac8c7c3b92560405160405180910390a45050565b600080610f2683610a21565b90508073ffffffffffffffffffffffffffffffffffffffff168473ffffffffffffffffffffffffffffffffffffffff161480610f685750610f678185610cea565b5b80610fa657508373ffffffffffffffffffffffffffffffffffffffff16610f8e846105eb565b73ffffffffffffffffffffffffffffffffffffffff16145b91505092915050565b8273ffffffffffffffffffffffffffffffffffffffff16610fcf82610a21565b73ffffffffffffffffffffffffffffffffffffffff1614611025576040517f08c379a000000000000000000000000000000000000000000000000000000000815260040161101c906125aa565b60405180910390fd5b600073ffffffffffffffffffffffffffffffffffffffff168273ffffffffffffffffffffffffffffffffffffffff161415611095576040517f08c379a000000000000000000000000000000000000000000000000000000000815260040161108c906125ea565b60405180910390fd5b6110a283838360016119ca565b8273ffffffffffffffffffffffffffffffffffffffff166110c282610a21565b73ffffffffffffffffffffffffffffffffffffffff1614611118576040517f08c379a000000000000000000000000000000000000000000000000000000000815260040161110f906125aa565b60405180910390fd5b6004600082815260200190815260200160002060006101000a81549073ffffffffffffffffffffffffffffffffffffffff02191690556001600360008573ffffffffffffffffffffffffffffffffffffffff1673ffffffffffffffffffffffffffffffffffffffff168152602001908152602001600020600082825403925050819055506001600360008473ffffffffffffffffffffffffffffffffffffffff1673ffffffffffffffffffffffffffffffffffffffff16815260200190815260200160002060008282540192505081905550816002600083815260200190815260200160002060006101000a81548173ffffffffffffffffffffffffffffffffffffffff021916908373ffffffffffffffffffffffffffffffffffffffff160217905550808273ffffffffffffffffffffffffffffffffffffffff168473ffffffffffffffffffffffffffffffffffffffff167fddf252ad1be2c89b69c2b068fc378daa952ba7f163c4a11628f55a4df523b3ef60405160405180910390a46112a483838360016119d0565b505050565b600260065414156112ef576040517f08c379a00000000000000000000000000000000000000000000000000000000081526004016112e69061274a565b60405180910390fd5b6002600681905550565b6000424460405160200161130e92919061245f565b6040516020818303038152906040528051906020012060001c905090565b8047101561136f576040517f08c379a00000000000000000000000000000000000000000000000000000000081526004016113669061264a565b60405180910390fd5b60008273ffffffffffffffffffffffffffffffffffffffff16826040516113959061244a565b60006040518083038185875af1925050503d80600081146113d2576040519150601f19603f3d011682016040523d82523d6000602084013e6113d7565b606091505b505090508061141b576040517f08c379a00000000000000000000000000000000000000000000000000000000081526004016114129061262a565b60405180910390fd5b505050565b6001600681905550565b600073ffffffffffffffffffffffffffffffffffffffff168273ffffffffffffffffffffffffffffffffffffffff16141561149a576040517f08c379a00000000000000000000000000000000000000000000000000000000081526004016114919061268a565b60405180910390fd5b6114a381611989565b156114e3576040517f08c379a00000000000000000000000000000000000000000000000000000000081526004016114da906125ca565b60405180910390fd5b6114f16000838360016119ca565b6114fa81611989565b1561153a576040517f08c379a0000000000000000000000000000000000000000000000000000000008152600401611531906125ca565b60405180910390fd5b6001600360008473ffffffffffffffffffffffffffffffffffffffff1673ffffffffffffffffffffffffffffffffffffffff16815260200190815260200160002060008282540192505081905550816002600083815260200190815260200160002060006101000a81548173ffffffffffffffffffffffffffffffffffffffff021916908373ffffffffffffffffffffffffffffffffffffffff160217905550808273ffffffffffffffffffffffffffffffffffffffff16600073ffffffffffffffffffffffffffffffffffffffff167fddf252ad1be2c89b69c2b068fc378daa952ba7f163c4a11628f55a4df523b3ef60405160405180910390a46116446000838360016119d0565b5050565b60006002600083815260200190815260200160002060009054906101000a900473ffffffffffffffffffffffffffffffffffffffff169050919050565b8173ffffffffffffffffffffffffffffffffffffffff168373ffffffffffffffffffffffffffffffffffffffff1614156116f4576040517f08c379a00000000000000000000000000000000000000000000000000000000081526004016116eb9061260a565b60405180910390fd5b80600560008573ffffffffffffffffffffffffffffffffffffffff1673ffffffffffffffffffffffffffffffffffffffff16815260200190815260200160002060008473ffffffffffffffffffffffffffffffffffffffff1673ffffffffffffffffffffffffffffffffffffffff16815260200190815260200160002060006101000a81548160ff0219169083151502179055508173ffffffffffffffffffffffffffffffffffffffff168373ffffffffffffffffffffffffffffffffffffffff167f17307eab39ab6107e8899845ad3d59bd9653f200f220920489ca2b5937696c31836040516117e5919061250d565b60405180910390a3505050565b6117fd848484610faf565b611809848484846119d6565b611848576040517f08c379a000000000000000000000000000000000000000000000000000000000815260040161183f9061258a565b60405180910390fd5b50505050565b606060405180602001604052806000815250905090565b60606000600161187484611b6d565b01905060008167ffffffffffffffff8111156118b9577f4e487b7100000000000000000000000000000000000000000000000000000000600052604160045260246000fd5b6040519080825280601f01601f1916602001820160405280156118eb5781602001600182028036833780820191505090505b509050600082602001820190505b60011561197e578080600190039150507f3031323334353637383961626364656600000000000000000000000000000000600a86061a8153600a8581611968577f4e487b7100000000000000000000000000000000000000000000000000000000600052601260045260246000fd5b04945060008514156119795761197e565b6118f9565b819350505050919050565b60008073ffffffffffffffffffffffffffffffffffffffff166119ab83611648565b73ffffffffffffffffffffffffffffffffffffffff1614159050919050565b50505050565b50505050565b60006119f78473ffffffffffffffffffffffffffffffffffffffff16611da4565b15611b60578373ffffffffffffffffffffffffffffffffffffffff1663150b7a02611a20610e59565b8786866040518563ffffffff1660e01b8152600401611a4294939291906124c1565b602060405180830381600087803b158015611a5c57600080fd5b505af1925050508015611a8d57506040513d601f19601f82011682018060405250810190611a8a9190612068565b60015b611b10573d8060008114611abd576040519150601f19603f3d011682016040523d82523d6000602084013e611ac2565b606091505b50600081511415611b08576040517f08c379a0000000000000000000000000000000000000000000000000000000008152600401611aff9061258a565b60405180910390fd5b805181602001fd5b63150b7a0260e01b7bffffffffffffffffffffffffffffffffffffffffffffffffffffffff1916817bffffffffffffffffffffffffffffffffffffffffffffffffffffffff191614915050611b65565b600190505b949350505050565b600080600090507a184f03e93ff9f4daa797ed6e38ed64bf6a1f0100000000000000008310611bf1577a184f03e93ff9f4daa797ed6e38ed64bf6a1f0100000000000000008381611be7577f4e487b7100000000000000000000000000000000000000000000000000000000600052601260045260246000fd5b0492506040810190505b6d04ee2d6d415b85acef81000000008310611c54576d04ee2d6d415b85acef81000000008381611c4a577f4e487b7100000000000000000000000000000000000000000000000000000000600052601260045260246000fd5b0492506020810190505b662386f26fc100008310611ca957662386f26fc100008381611c9f577f4e487b7100000000000000000000000000000000000000000000000000000000600052601260045260246000fd5b0492506010810190505b6305f5e1008310611cf8576305f5e1008381611cee577f4e487b7100000000000000000000000000000000000000000000000000000000600052601260045260246000fd5b0492506008810190505b6127108310611d43576127108381611d39577f4e487b7100000000000000000000000000000000000000000000000000000000600052601260045260246000fd5b0492506004810190505b60648310611d8c5760648381611d82577f4e487b7100000000000000000000000000000000000000000000000000000000600052601260045260246000fd5b0492506002810190505b600a8310611d9b576001810190505b80915050919050565b6000808273ffffffffffffffffffffffffffffffffffffffff163b119050919050565b6000611dda611dd5846127aa565b612785565b905082815260208101848484011115611df257600080fd5b611dfd848285612990565b509392505050565b600081359050611e1481612f72565b92915050565b600081359050611e2981612f89565b92915050565b600081359050611e3e81612fa0565b92915050565b600081519050611e5381612fa0565b92915050565b600082601f830112611e6a57600080fd5b8135611e7a848260208601611dc7565b91505092915050565b600081359050611e9281612fb7565b92915050565b600060208284031215611eaa57600080fd5b6000611eb884828501611e05565b91505092915050565b60008060408385031215611ed457600080fd5b6000611ee285828601611e05565b9250506020611ef385828601611e05565b9150509250929050565b600080600060608486031215611f1257600080fd5b6000611f2086828701611e05565b9350506020611f3186828701611e05565b9250506040611f4286828701611e83565b9150509250925092565b60008060008060808587031215611f6257600080fd5b6000611f7087828801611e05565b9450506020611f8187828801611e05565b9350506040611f9287828801611e83565b925050606085013567ffffffffffffffff811115611faf57600080fd5b611fbb87828801611e59565b91505092959194509250565b60008060408385031215611fda57600080fd5b6000611fe885828601611e05565b9250506020611ff985828601611e1a565b9150509250929050565b6000806040838503121561201657600080fd5b600061202485828601611e05565b925050602061203585828601611e83565b9150509250929050565b60006020828403121561205157600080fd5b600061205f84828501611e2f565b91505092915050565b60006020828403121561207a57600080fd5b600061208884828501611e44565b91505092915050565b6000602082840312156120a357600080fd5b60006120b184828501611e83565b91505092915050565b6120c38161291c565b82525050565b6120d28161290a565b82525050565b6120e18161292e565b82525050565b60006120f2826127db565b6120fc81856127f1565b935061210c81856020860161299f565b61211581612b75565b840191505092915050565b600061212b826127e6565b612135818561280d565b935061214581856020860161299f565b61214e81612b75565b840191505092915050565b6000612164826127e6565b61216e818561281e565b935061217e81856020860161299f565b80840191505092915050565b6000612197602d8361280d565b91506121a282612b86565b604082019050919050565b60006121ba60188361280d565b91506121c582612bd5565b602082019050919050565b60006121dd60328361280d565b91506121e882612bfe565b604082019050919050565b600061220060258361280d565b915061220b82612c4d565b604082019050919050565b6000612223601c8361280d565b915061222e82612c9c565b602082019050919050565b600061224660248361280d565b915061225182612cc5565b604082019050919050565b600061226960198361280d565b915061227482612d14565b602082019050919050565b600061228c603a8361280d565b915061229782612d3d565b604082019050919050565b60006122af601d8361280d565b91506122ba82612d8c565b602082019050919050565b60006122d260298361280d565b91506122dd82612db5565b604082019050919050565b60006122f560208361280d565b915061230082612e04565b602082019050919050565b600061231860188361280d565b915061232382612e2d565b602082019050919050565b600061233b60188361280d565b915061234682612e56565b602082019050919050565b600061235e60168361280d565b915061236982612e7f565b602082019050919050565b600061238160218361280d565b915061238c82612ea8565b604082019050919050565b60006123a4600083612802565b91506123af82612ef7565b600082019050919050565b60006123c7603d8361280d565b91506123d282612efa565b604082019050919050565b60006123ea601f8361280d565b91506123f582612f49565b602082019050919050565b61240981612986565b82525050565b61242061241b82612986565b612a7e565b82525050565b60006124328285612159565b915061243e8284612159565b91508190509392505050565b600061245582612397565b9150819050919050565b600061246b828561240f565b60208201915061247b828461240f565b6020820191508190509392505050565b60006020820190506124a060008301846120c9565b92915050565b60006020820190506124bb60008301846120ba565b92915050565b60006080820190506124d660008301876120c9565b6124e360208301866120c9565b6124f06040830185612400565b818103606083015261250281846120e7565b905095945050505050565b600060208201905061252260008301846120d8565b92915050565b600060208201905081810360008301526125428184612120565b905092915050565b600060208201905081810360008301526125638161218a565b9050919050565b60006020820190508181036000830152612583816121ad565b9050919050565b600060208201905081810360008301526125a3816121d0565b9050919050565b600060208201905081810360008301526125c3816121f3565b9050919050565b600060208201905081810360008301526125e381612216565b9050919050565b6000602082019050818103600083015261260381612239565b9050919050565b600060208201905081810360008301526126238161225c565b9050919050565b600060208201905081810360008301526126438161227f565b9050919050565b60006020820190508181036000830152612663816122a2565b9050919050565b60006020820190508181036000830152612683816122c5565b9050919050565b600060208201905081810360008301526126a3816122e8565b9050919050565b600060208201905081810360008301526126c38161230b565b9050919050565b600060208201905081810360008301526126e38161232e565b9050919050565b6000602082019050818103600083015261270381612351565b9050919050565b6000602082019050818103600083015261272381612374565b9050919050565b60006020820190508181036000830152612743816123ba565b9050919050565b60006020820190508181036000830152612763816123dd565b9050919050565b600060208201905061277f6000830184612400565b92915050565b600061278f6127a0565b905061279b8282612a04565b919050565b6000604051905090565b600067ffffffffffffffff8211156127c5576127c4612b46565b5b6127ce82612b75565b9050602081019050919050565b600081519050919050565b600081519050919050565b600082825260208201905092915050565b600081905092915050565b600082825260208201905092915050565b600081905092915050565b600061283482612986565b915061283f83612986565b9250827fffffffffffffffffffffffffffffffffffffffffffffffffffffffffffffffff0382111561287457612873612ab9565b5b828201905092915050565b600061288a82612986565b915061289583612986565b9250826128a5576128a4612ae8565b5b828204905092915050565b60006128bb82612986565b91506128c683612986565b9250817fffffffffffffffffffffffffffffffffffffffffffffffffffffffffffffffff04831182151516156128ff576128fe612ab9565b5b828202905092915050565b600061291582612966565b9050919050565b600061292782612966565b9050919050565b60008115159050919050565b60007fffffffff0000000000000000000000000000000000000000000000000000000082169050919050565b600073ffffffffffffffffffffffffffffffffffffffff82169050919050565b6000819050919050565b82818337600083830152505050565b60005b838110156129bd5780820151818401526020810190506129a2565b838111156129cc576000848401525b50505050565b600060028204905060018216806129ea57607f821691505b602082108114156129fe576129fd612b17565b5b50919050565b612a0d82612b75565b810181811067ffffffffffffffff82111715612a2c57612a2b612b46565b5b80604052505050565b6000612a4082612986565b91507fffffffffffffffffffffffffffffffffffffffffffffffffffffffffffffffff821415612a7357612a72612ab9565b5b600182019050919050565b6000819050919050565b6000612a9382612986565b9150612a9e83612986565b925082612aae57612aad612ae8565b5b828206905092915050565b7f4e487b7100000000000000000000000000000000000000000000000000000000600052601160045260246000fd5b7f4e487b7100000000000000000000000000000000000000000000000000000000600052601260045260246000fd5b7f4e487b7100000000000000000000000000000000000000000000000000000000600052602260045260246000fd5b7f4e487b7100000000000000000000000000000000000000000000000000000000600052604160045260246000fd5b6000601f19601f8301169050919050565b7f4552433732313a2063616c6c6572206973206e6f7420746f6b656e206f776e6560008201527f72206f7220617070726f76656400000000000000000000000000000000000000602082015250565b7f4e6f7420616c6c207469636b65747320736f6c64207965740000000000000000600082015250565b7f4552433732313a207472616e7366657220746f206e6f6e20455243373231526560008201527f63656976657220696d706c656d656e7465720000000000000000000000000000602082015250565b7f4552433732313a207472616e736665722066726f6d20696e636f72726563742060008201527f6f776e6572000000000000000000000000000000000000000000000000000000602082015250565b7f4552433732313a20746f6b656e20616c7265616479206d696e74656400000000600082015250565b7f4552433732313a207472616e7366657220746f20746865207a65726f2061646460008201527f7265737300000000000000000000000000000000000000000000000000000000602082015250565b7f4552433732313a20617070726f766520746f2063616c6c657200000000000000600082015250565b7f416464726573733a20756e61626c6520746f2073656e642076616c75652c207260008201527f6563697069656e74206d61792068617665207265766572746564000000000000602082015250565b7f416464726573733a20696e73756666696369656e742062616c616e6365000000600082015250565b7f4552433732313a2061646472657373207a65726f206973206e6f74206120766160008201527f6c6964206f776e65720000000000000000000000000000000000000000000000602082015250565b7f4552433732313a206d696e7420746f20746865207a65726f2061646472657373600082015250565b7f416c6c207469636b6574732061726520736f6c64206f75740000000000000000600082015250565b7f4552433732313a20696e76616c696420746f6b656e2049440000000000000000600082015250565b7f496e636f7272656374207469636b657420707269636500000000000000000000600082015250565b7f4552433732313a20617070726f76616c20746f2063757272656e74206f776e6560008201527f7200000000000000000000000000000000000000000000000000000000000000602082015250565b50565b7f4552433732313a20617070726f76652063616c6c6572206973206e6f7420746f60008201527f6b656e206f776e6572206f7220617070726f76656420666f7220616c6c000000602082015250565b7f5265656e7472616e637947756172643a207265656e7472616e742063616c6c00600082015250565b612f7b8161290a565b8114612f8657600080fd5b50565b612f928161292e565b8114612f9d57600080fd5b50565b612fa98161293a565b8114612fb457600080fd5b50565b612fc081612986565b8114612fcb57600080fd5b5056fea2646970667358221220ff9a0ff2e8ce71143fdd0f0881b4ac1c5cbcd9cd9b918e0f13617cddbd27101064736f6c63430008040033",
  "linkReferences": {},
  "deployedLinkReferences": {}
}